:020000040800F2
:1000000000800120A51A0008A1180008A718000800
:10001000AD180008B3180008B91800080000000067
:10002000000000000000000000000000BF180008F1
:10003000CD18000800000000DB180008E9180008CF
:10004000F51A0008F51A0008F51A0008F51A000854
:10005000F51A0008F51A0008F51A0008F51A000844
:10006000F51A0008F51A0008F51A0008F51A000834
:10007000F51A0008F51A0008F51A0008F51A000824
:10008000F51A0008F51A0008F51A0008000000002B
:10009000000000000000000000000000F51A000849
:1000A000F51A0008F51A0008F51A0008F51A0008F4
:1000B000F51A0008F51A0008F51A0008F51A0008E4
:1000C000F51A0008F51A0008F51A0008F51A0008D4
:1000D000F51A0008F51A0008F51A000800000000DB
:1000E000F51A0008F51A0008F51A000800000000CB
:1000F000000000000000000000000000F51A0008E9
:1001000000000000F51A0008F51A0008F51A0008AA
:1001100000000000000000000000000000000000DF
:10012000F51A0008F51A0008F51A0008F51A000873
:10013000F51A0008000000000000000000000000A8
:10014000000000000000000000000000F51A000898
:10015000F51A0008F51A0008F51A0008F51A000843
:10016000F51A0008F51A0008000000000000000061
:10017000000000000000000000000000000000007F
:1001800000000000F51A0008000000000000000058
:04019000F51A000854
:1001A00010B5054C237833B9044B13B10448AFF3B1
:1001B00000800123237010BDDC010020000000003E
:1001C0001061000808B5034B1BB103490348AFF3A6
:1001D000008008BD00000000E00100201061000860
:1001E000034613F8012B002AFBD1181A0138704777
:1001F00001F0FF01102A2BDB10F0070F08D010F8D8
:10020000013B013A8B422DD010F0070F42B3F6D1DB
:10021000F0B441EA012141EA014122F007047FF0F4
:1002200000070023F0E80256083C85EA010586EA4B
:10023000010685FA47F5A3FA87F586FA47F6A5FA87
:1002400087F68EB9EED1F0BC01F0FF0102F0070293
:1002500032B110F8013B013A83EA010313B1F8D13E
:100260000020704701387047002D06BF354603381F
:10027000073815F0010F07D1013015F4807F02BF58
:10028000013015F4C03F0130F0BC0138704700BFA9
:1002900081F0004102E000BF83F0004330B54FEA37
:1002A00041044FEA430594EA050F08BF90EA020FA4
:1002B0001FBF54EA000C55EA020C7FEA645C7FEA37
:1002C000655C00F0E2804FEA5454D4EB5555B8BF5A
:1002D0006D420CDD2C4480EA020281EA030382EACB
:1002E000000083EA010180EA020281EA0303362D5D
:1002F00088BF30BD11F0004F4FEA01314FF4801C30
:100300004CEA113102D0404261EB410113F0004F41
:100310004FEA03334CEA133302D0524263EB4303F8
:1003200094EA050F00F0A780A4F10104D5F1200E96
:100330000DDB02FA0EFC22FA05F2801841F10001F1
:1003400003FA0EF2801843FA05F359410EE0A5F1C5
:1003500020050EF1200E012A03FA0EFC28BF4CF0F6
:10036000020C43FA05F3C01851EBE37101F00045AC
:1003700007D54FF0000EDCF1000C7EEB00006EEBB9
:100380000101B1F5801F1BD3B1F5001F0CD3490843
:100390005FEA30004FEA3C0C04F101044FEA44529A
:1003A00012F5800F80F09A80BCF1004F08BF5FEA21
:1003B000500C50F1000041EB045141EA050130BD01
:1003C0005FEA4C0C404141EB0101013C28BFB1F513
:1003D000801FE9D291F0000F04BF01460020B1FA5E
:1003E00081F308BF2033A3F10B03B3F120020CDA31
:1003F0000C3208DD02F1140CC2F10C0201FA0CF00F
:1004000021FA02F10CE002F11402D8BFC2F1200C73
:1004100001FA02F120FA0CFCDCBF41EA0C01904029
:10042000E41AA2BF01EB0451294330BD6FEA040472
:100430001F3C1CDA0C340EDC04F11404C4F120025D
:1004400020FA04F001FA02F340EA030021FA04F36F
:1004500045EA030130BDC4F10C04C4F1200220FAC6
:1004600002F001FA04F340EA0300294630BD21FA04
:1004700004F0294630BD94F0000F83F4801306BFCA
:1004800081F480110134013D4EE77FEA645C18BFBE
:100490007FEA655C29D094EA050F08BF90EA020F55
:1004A00005D054EA000C04BF1946104630BD91EA4D
:1004B000030F1EBF0021002030BD5FEA545C05D150
:1004C0004000494128BF41F0004130BD14F580048F
:1004D0003CBF01F5801130BD01F0004545F0FE4103
:1004E00041F470014FF0000030BD7FEA645C1ABF38
:1004F000194610467FEA655C1CBF0B46024650EA6F
:10050000013406BF52EA033591EA030F41F400219A
:1005100030BD00BF90F0000F04BF0021704730B520
:100520004FF4806404F132044FF000054FF00001F5
:1005300050E700BF90F0000F04BF0021704730B5B6
:100540004FF4806404F1320410F0004548BF40428B
:100550004FF000013EE700BF42004FEAE2014FEAE0
:1005600031014FEA02701FBF12F07F4393F07F4FBB
:1005700081F06051704732F07F4208BF704793F0BE
:100580007F4F04BF41F40021704730B54FF46074D1
:1005900001F0004521F000411CE700BF50EA0102D4
:1005A00008BF704730B54FF000050AE050EA01027D
:1005B00008BF704730B511F0004502D5404261EBED
:1005C00041014FF4806404F132045FEA915C3FF42E
:1005D000D8AE4FF003025FEADC0C18BF03325FEACB
:1005E000DC0C18BF033202EBDC02C2F1200300FA7C
:1005F00003FC20FA02F001FA03FE40EA0E0021FAA1
:1006000002F11444BDE600BF70B54FF0FF0C4CF48E
:10061000E06C1CEA11541DBF1CEA135594EA0C0F40
:1006200095EA0C0F00F0DEF82C4481EA030621EA7B
:100630004C5123EA4C5350EA013518BF52EA0335B6
:1006400041F4801143F4801338D0A0FB02CE4FF068
:100650000005E1FB02E506F00042E0FB03E54FF098
:100660000006E1FB03569CF0000F18BF4EF0010E90
:10067000A4F1FF04B6F5007F64F5407404D25FEA8C
:100680004E0E6D4146EB060642EAC62141EA55513F
:100690004FEAC52040EA5E504FEACE2EB4F1FD0C81
:1006A00088BFBCF5E06F1ED8BEF1004F08BF5FEAFF
:1006B000500E50F1000041EB045170BD06F00046B1
:1006C00046EA010140EA020081EA0301B4EB5C045E
:1006D000C2BFD4EB0C0541EA045170BD41F4801156
:1006E0004FF0000E013C00F3AB8014F1360FDEBF7B
:1006F000002001F0004170BDC4F10004203C35DA57
:100700000C341BDC04F11404C4F1200500FA05F3D9
:1007100020FA04F001FA05F240EA020001F000427A
:1007200021F0004110EBD37021FA04F642EB0601F0
:100730005EEA430E08BF20EAD37070BDC4F10C041A
:10074000C4F1200500FA04F320FA05F001FA04F2DE
:1007500040EA020001F0004110EBD37041F10001CA
:100760005EEA430E08BF20EAD37070BDC4F12005D5
:1007700000FA05F24EEA020E20FA04F301FA05F23D
:1007800043EA020321FA04F001F0004121FA04F2E5
:1007900020EA020000EBD3705EEA430E08BF20EAB5
:1007A000D37070BD94F0000F0FD101F000464000EF
:1007B00041EB010111F4801F08BF013CF7D041EA71
:1007C000060195F0000F18BF704703F00046520075
:1007D00043EB030313F4801F08BF013DF7D043EA46
:1007E0000603704794EA0C0F0CEA135518BF95EAFC
:1007F0000C0F0CD050EA410618BF52EA4306D1D183
:1008000081EA030101F000414FF0000070BD50EAA1
:10081000410606BF1046194652EA430619D094EA2B
:100820000C0F02D150EA013613D195EA0C0F05D115
:1008300052EA03361CBF104619460AD181EA030169
:1008400001F0004141F0FE4141F470014FF0000021
:1008500070BD41F0FE4141F4780170BD70B54FF0BC
:10086000FF0C4CF4E06C1CEA11541DBF1CEA13553C
:1008700094EA0C0F95EA0C0F00F0A7F8A4EB05041E
:1008800081EA030E52EA03354FEA013100F0888015
:100890004FEA03334FF0805545EA131343EA1263DE
:1008A0004FEA022245EA111545EA10654FEA002693
:1008B0000EF000419D4208BF964244F1FD0404F54C
:1008C000407402D25B084FEA3202B61A65EB0305A8
:1008D0005B084FEA32024FF480104FF4002CB6EB65
:1008E000020E75EB030E22BFB61A754640EA0C00E5
:1008F0005B084FEA3202B6EB020E75EB030E22BF25
:10090000B61A754640EA5C005B084FEA3202B6EB65
:10091000020E75EB030E22BFB61A754640EA9C0024
:100920005B084FEA3202B6EB020E75EB030E22BFF4
:10093000B61A754640EADC0055EA060E18D04FEAB2
:10094000051545EA16754FEA06164FEAC30343EA52
:1009500052734FEAC2025FEA1C1CC0D111F4801F1F
:100960000BD141EA00014FF000004FF0004CB6E718
:1009700011F4801F04BF01430020B4F1FD0C88BFB7
:10098000BCF5E06F3FF6AFAEB5EB030C04BFB6EBC2
:10099000020C5FEA500C50F1000041EB045170BDB5
:1009A0000EF0004E4EEA113114EB5C04C2BFD4EBE2
:1009B0000C0541EA045170BD41F480114FF0000E66
:1009C000013C90E645EA060E8DE60CEA135594EAE2
:1009D0000C0F08BF95EA0C0F3FF43BAF94EA0C0FE5
:1009E0000AD150EA01347FF434AF95EA0C0F7FF45A
:1009F00025AF104619462CE795EA0C0F06D152EAAE
:100A000003353FF4FDAE1046194622E750EA410691
:100A100018BF52EA43067FF4C5AE50EA41047FF4A2
:100A20000DAF52EA43057FF4EBAE12E74FF0FF3C07
:100A300006E000BF4FF0010C02E000BF4FF0010CD8
:100A40004DF804CD4FEA410C7FEA6C5C4FEA430C51
:100A500018BF7FEA6C5C1BD001B050EA410C0CBFA0
:100A600052EA430C91EA030F02BF90EA020F002002
:100A7000704710F1000F91EA030F58BF994208BF69
:100A800090422CBFD8176FEAE37040F00100704726
:100A90004FEA410C7FEA6C5C02D150EA013C07D17D
:100AA0004FEA430C7FEA6C5CD6D152EA033CD3D0C8
:100AB0005DF8040B704700BF8446104662468C46C2
:100AC0001946634600E000BF01B5FFF7B7FF0028F5
:100AD00048BF10F1000F01BD4DF808EDFFF7F4FF1E
:100AE0000CBF012000205DF808FB00BF4DF808EDA9
:100AF000FFF7EAFF34BF012000205DF808FB00BFCC
:100B00004DF808EDFFF7E0FF94BF012000205DF8ED
:100B100008FB00BF4DF808EDFFF7CEFF94BF0120A2
:100B200000205DF808FB00BF4DF808EDFFF7C4FF9B
:100B300034BF012000205DF808FB00BF4FEA410CE4
:100B40007FEA6C5C02D150EA013C0AD14FEA430CC7
:100B50007FEA6C5C02D152EA033C02D14FF0000004
:100B600070474FF0010070474FEA410212F5001242
:100B700015D211D56FF47873B3EB625212D94FEAE4
:100B8000C12343F0004343EA505311F0004F23FACE
:100B900002F018BF404270474FF00000704750EA23
:100BA000013005D111F0004008BF6FF000407047E0
:100BB0004FF00000704700BF4FEA4102B2F1E0433E
:100BC00024BFB3F5001CDCF1FE5C0DD901F0004C34
:100BD0004FEAC0024CEA5070B2F1004F40EB830084
:100BE00008BF20F00100704711F0804F21D113F1B0
:100BF0003872BCBF01F00040704741F480114FEAE9
:100C00005252C2F11802C2F1200C10FA0CF320FA71
:100C100002F018BF40F001004FEAC1234FEAD3238E
:100C200003FA0CFC40EA0C0023FA02F34FEA4303F8
:100C3000CCE77FEA625307D150EA01331EBF4FF081
:100C4000FE4040F44000704701F0004040F0FE409C
:100C500040F40000704700BF53B94AB9002908BFEB
:100C600000281CBF4FF0FF314FF0FF3000F074B987
:100C7000ADF1080C6DE904CE00F006F8DDF804E0F3
:100C8000DDE9022304B070472DE9F047089D0446D2
:100C90008E46002B4DD18A42944669D9B2FA82F22F
:100CA00052B101FA02F3C2F1200120FA01F10CFA6B
:100CB00002FC41EA030E94404FEA1C48210CBEFBA3
:100CC000F8F61FFA8CF708FB16E341EA034306FB2C
:100CD00007F199420AD91CEB030306F1FF3080F0BB
:100CE0001F81994240F21C81023E63445B1AA4B208
:100CF000B3FBF8F008FB103344EA034400FB07F7AA
:100D0000A7420AD91CEB040400F1FF3380F00A81EA
:100D1000A74240F207816444023840EA0640E41BDF
:100D200000261DB1D4400023C5E900433146BDE88B
:100D3000F0878B4209D9002D00F0EF800026C5E92D
:100D4000000130463146BDE8F087B3FA83F6002E45
:100D50004AD18B4202D3824200F2F980841A61EBBD
:100D6000030301209E46002DE0D0C5E9004EDDE7DB
:100D700002B9FFDEB2FA82F2002A40F09280A1EBC3
:100D80000C014FEA1C471FFA8CFE0126200CB1FB18
:100D9000F7F307FB131140EA01410EFB03F0884211
:100DA00008D91CEB010103F1FF3802D2884200F29E
:100DB000CB804346091AA4B2B1FBF7F007FB101130
:100DC00044EA01440EFB00FEA64508D91CEB0404CE
:100DD00000F1FF3102D2A64500F2BB800846A4EB29
:100DE0000E0440EA03409CE7C6F12007B34022FA14
:100DF00007FC4CEA030C20FA07F401FA06F31C4343
:100E0000F9404FEA1C4900FA06F3B1FBF9F8200C4F
:100E10001FFA8CFE09FB181140EA014108FB0EF095
:100E2000884202FA06F20BD91CEB010108F1FF3AE5
:100E300080F08880884240F28580A8F102086144F1
:100E4000091AA4B2B1FBF9F009FB101144EA0141FF
:100E500000FB0EFE8E4508D91CEB010100F1FF34AA
:100E60006CD28E456AD90238614440EA0840A0FB42
:100E70000294A1EB0E01A142C846A64656D353D018
:100E80005DB1B3EB080261EB0E0101FA07F722FA3C
:100E900006F3F1401F43C5E9007100263146BDE865
:100EA000F087C2F12003D8400CFA02FC21FA03F3C8
:100EB000914001434FEA1C471FFA8CFEB3FBF7F049
:100EC00007FB10360B0C43EA064300FB0EF69E426E
:100ED00004FA02F408D91CEB030300F1FF382FD207
:100EE0009E422DD9023863449B1B89B2B3FBF7F6AF
:100EF00007FB163341EA034106FB0EF38B4208D988
:100F00001CEB010106F1FF3816D28B4214D9023EC8
:100F10006144C91A46EA004638E72E46284605E7E6
:100F20000646E3E61846F8E64B45A9D2B9EB0208B7
:100F300064EB0C0E0138A3E74646EAE7204694E747
:100F40004046D1E7D0467BE7023B614432E730467A
:100F500009E76444023842E7704700BFB0B58AB081
:100F600000AFF860B9607A603B6097F8443087F86A
:100F70002630B7F84030BB84FB6B3B623B8FBB83B2
:100F80003B68BB617B687B61BB683B6107F1100319
:100F9000184600F00EF8FB681D4607F110040FCC50
:100FA0000FC594E8030085E80300F8682837BD46BC
:100FB000B0BD80B582B000AF78607B689B7D002BB0
:100FC0000CD13321786800F057F83221786800F0AE
:100FD00053F82821786800F04FF803E0382178684A
:100FE00000F04AF80121786800F046F80C21786892
:100FF00000F042F80621786800F03EF800BF08379C
:10100000BD4680BD90B585B000AF786039600023E3
:10101000FB730AE0FB7B3A6813441B781946786837
:1010200000F058F8FB7B0133FB73FC7B3868FFF75B
:10103000D7F803469C42EDD300BF00BF1437BD462E
:1010400090BD000080B582B000AF78600B46FB70A9
:101050001346BB70FB78074AD25CBB781344DBB203
:10106000803BDBB21946786800F006F800BF08370D
:10107000BD4680BD7061000880B582B000AF786069
:101080000B46FB707B6898687B689B890022194639
:1010900001F04AF87B689B7D002B11D1FB781B097E
:1010A000DBB204221946786800F042F8FB7803F0BE
:1010B0000F03DBB204221946786800F039F805E026
:1010C000FB7808221946786800F032F800BF08372C
:1010D000BD4680BD80B582B000AF78600B46FB7026
:1010E0007B6898687B689B890122194601F01CF88F
:1010F0007B689B7D002B11D1FB781B09DBB204229E
:101100001946786800F014F8FB7803F00F03DBB29F
:1011100004221946786800F00BF805E0FB780822F5
:101120001946786800F004F800BF0837BD4680BD56
:1011300080B584B000AF78600B46FB701346BB707F
:101140000023FB7319E07B681A68FB7B9B00134448
:1011500018687B685A68FB7B5B0013441988FA782F
:10116000FB7B42FA03F3DBB203F00103DBB21A4666
:1011700000F0DAFFFB7B0133FB73FA7BBB789A420A
:10118000E1D37B6818697B689B8A0122194600F0CD
:10119000CBFF012000F022FD7B6818697B689B8AE9
:1011A0000022194600F0C0FF00BF1037BD4680BDC9
:1011B00080B400AF0C4BDB6803F08073002B0ED1C2
:1011C000094BDB68084A43F08073D360074B002269
:1011D0005A60064B1B68054A43F00103136000BFC9
:1011E000BD465DF8047B7047F0ED00E0001000E0C4
:1011F00080B485B000AF78600D4B5B68FB600D4B31
:101200001B680D4AA2FB03239A0C7B6802FB03F3C5
:10121000BB6000BF064B5A68FB68D31ABA689A4293
:10122000F8D800BF00BF1437BD465DF8047B704797
:10123000001000E00000002083DE1B4300000000DF
:1012400080B500AF224B00221A6001220221214802
:1012500000F06AFF0A20FFF7CBFF002202211D48A1
:1012600000F062FF00BF04211A4800F045FF03466A
:10127000002BF8D007E0164B1B680133144A1360AB
:101280000120FFF7B5FF0421124800F035FF0346A7
:10129000002BF0D10E4B1B6807EE903AF8EEE77A80
:1012A00017EE900AFFF758F907A3D3E90023FFF7D9
:1012B000D5FA02460B4610461946FFF77DFC034659
:1012C000054A136000BF80BD9A99999999193D40CC
:1012D000400200200000024044020020B0B59CB053
:1012E00004AF00F009FCFFF763FF00F0FBF800F02B
:1012F000C9F900F063F900216B4801F0E3FB042118
:10130000694801F0DFFB694B07F13C040FCB84E82F
:101310000F00674A07F1340392E8030083E80300F3
:10132000384607F1340207F13C01002303934023C0
:101330000293604B0193802300935E4BFFF70EFEF8
:1013400007F11C043D460FCD0FC495E8030084E867
:10135000030007F11C03002200211846FFF772FE6C
:1013600007F11C0354491846FFF74CFE07F11C0314
:10137000002201211846FFF765FE07F11C034F49C3
:101380001846FFF73FFEFFF75BFF07F11C0308223B
:1013900000211846FFF756FE494B1B681846FFF719
:1013A000DBF802460B4607F14C00464902F038FCD8
:1013B00007F14C0207F11C0311461846FFF722FE05
:1013C0003F4BD3ED007A9FED407AF4EEC77AF1EE11
:1013D00010FA1ED53D4B00229A633C4B7F225A6384
:1013E00000224FF4C0713A4800F09EFE01224021D5
:1013F000374800F099FE07F11C0305220121184629
:10140000FFF720FE07F11C0332491846FFF7FAFDEB
:1014100046E02B4BD3ED007A9FED2F7AF4EEC77A9E
:10142000F1EE10FA1ED5294B00229A63274B0022B9
:101430005A6300224FF4A071254800F075FE012286
:101440008021234800F070FE07F11C0305220121D2
:101450001846FFF7F7FD07F11C0320491846FFF770
:10146000D1FD1DE0194B00225A63184B7F229A636D
:101470000022C021164800F057FE01224FF480716F
:10148000134800F051FE07F11C0305220121184604
:10149000FFF7D8FD07F11C0311491846FFF7B2FD0D
:1014A000642000F09BFB6EE7F80100205861000803
:1014B00068610008000002402861000834610008EB
:1014C000440200203C61000800007A430004004010
:1014D00000080240406100080000AF434861000876
:1014E0005061000880B594B000AF07F120033022AE
:1014F0000021184601F022FF07F10C0300221A60B8
:101500005A609A60DA601A610023BB60294B1B6C39
:10151000284A43F080531364264B1B6C03F080531E
:10152000BB60BB6800237B60234B1B6823F44043F4
:10153000214A43F4004313601F4B1B6803F44043EC
:101540007B607B6801233B624FF480337B62022324
:10155000BB634FF48003FB6304233B6450237B6431
:101560000223BB640423FB6407F12003184600F048
:10157000F5FD0346002B01D000F008F90F23FB60B6
:1015800002233B6100237B614FF48053BB614FF426
:10159000E053FB6107F10C030221184601F056F8F5
:1015A0000346002B01D000F0F1F800BF5037BD46D4
:1015B00080BD00BF003802400070004080B58AB096
:1015C00000AF07F1200300221A605A603B1D002281
:1015D0001A605A609A60DA601A615A619A61274B00
:1015E000274A1A60254B00225A60244B00229A6039
:1015F000224BFF22DA60214B00221A611F4B00228E
:101600009A611E4801F00EFA0346002B01D000F04B
:10161000BDF800233B6200237B6207F120031946DB
:10162000164801F0F3FD0346002B01D000F0AEF8A0
:1016300060237B600023BB600023FB6000237B6191
:101640003B1D002219460D4801F0ECFA0346002B21
:1016500001D000F09BF83B1D04221946074801F019
:10166000E1FA0346002B01D000F090F8034800F0A7
:10167000DDF800BF2837BD4680BD00BFF80100205F
:101680000004004080B58AB000AF07F114030022C7
:101690001A605A609A60DA601A6100233B61384B25
:1016A0001B6B374A43F080031363354B1B6B03F00E
:1016B00080033B613B690023FB60314B1B6B304A6D
:1016C00043F0010313632E4B1B6B03F00103FB601C
:1016D000FB680023BB602A4B1B6B294A43F00403C1
:1016E0001363274B1B6B03F00403BB60BB68002331
:1016F0007B60234B1B6B224A43F002031363204B96
:101700001B6B03F002037B607B68002240F6C27112
:101710001C4800F009FD00224FF4E0711A4800F067
:1017200003FD40F6C2737B610123BB610023FB61B3
:1017300000233B6207F114031946124800F058FBDE
:1017400004237B610023BB610023FB6107F11403C9
:1017500019460C4800F04CFB4FF4E0737B61012309
:10176000BB610023FB6100233B6207F114031946B0
:10177000054800F03DFB00BF2837BD4680BD00BFD7
:1017800000380240000002400008024080B400AF70
:1017900072B600BFFEE7000080B483B000AF002344
:1017A0007B60104B5B6C0F4A43F4804353640D4BDA
:1017B0005B6C03F480437B607B6800233B60094BD8
:1017C0001B6C084A43F080531364064B1B6C03F0F8
:1017D00080533B603B6800BF0C37BD465DF8047B1F
:1017E000704700BF0038024080B485B000AF786019
:1017F0007B681B680B4A93420DD10023FB600A4BA8
:101800001B6C094A43F002031364074B1B6C03F083
:101810000203FB60FB6800BF1437BD465DF8047B24
:10182000704700BF000400400038024080B588B017
:1018300000AF786007F10C0300221A605A609A60CA
:10184000DA601A617B681B68124A93421DD100233B
:10185000BB60114B1B6B104A43F0020313630E4B2A
:101860001B6B03F00203BB60BB683023FB600223E9
:101870003B6100237B610023BB610223FB6107F115
:101880000C031946054800F0B3FA00BF2037BD46E7
:1018900080BD00BF00040040003802400004024048
:1018A00080B400AFFEE780B400AFFEE780B400AFC5
:1018B000FEE780B400AFFEE780B400AFFEE780B47F
:1018C00000AF00BFBD465DF8047B704780B400AF39
:1018D00000BFBD465DF8047B704780B400AF00BF19
:1018E000BD465DF8047B704780B500AF00F056F947
:1018F00000BF80BD80B400AF01231846BD465DF82F
:10190000047B704780B582B000AF7860396001F029
:10191000EBFC034616221A604FF0FF3318460837D7
:10192000BD4680BD80B582B000AF78604FF0FF311A
:101930007868FFF7E7FFFEE780B586B000AFF86094
:10194000B9607A6000237B610AE0AFF30080014652
:10195000BB685A1CBA60CAB21A707B6901337B61DA
:101960007A697B689A42F0DB7B6818461837BD4677
:1019700080BD80B586B000AFF860B9607A600023A2
:101980007B6109E0BB685A1CBA601B781846AFF34C
:1019900000807B6901337B617A697B689A42F1DB65
:1019A0007B6818461837BD4680BD80B483B000AF51
:1019B00078604FF0FF3318460C37BD465DF8047B66
:1019C000704780B483B000AF786039603B684FF4F3
:1019D00000525A60002318460C37BD465DF8047B60
:1019E000704780B483B000AF7860012318460C378D
:1019F000BD465DF8047B704780B485B000AFF860E9
:101A0000B9607A60002318461437BD465DF8047B40
:101A10007047000080B586B000AF7860144A154B5F
:101A2000D31A7B617B693B61134B1B68002B02D18E
:101A3000114B124A1A60104B1A687B6813443A69BA
:101A40009A4207D201F050FC03460C221A604FF074
:101A5000FF3309E0084B1B68FB60074B1A687B6883
:101A60001344054A1360FB6818461837BD4680BD0D
:101A700000800120000400004802002060020020D5
:101A800080B400AF064BD3F88830054A43F47003A6
:101A9000C2F8883000BFBD465DF8047B704700BFC8
:101AA00000ED00E0DFF834D00D480E490E4A002367
:101AB00002E0D458C4500433C4188C42F9D30B4A02
:101AC0000B4C002301E013600432A242FBD3FFF76A
:101AD000D7FF01F00FFCFFF701FC704700800120E9
:101AE00000000020DC0100206C650008DC01002003
:101AF00060020020FEE7000080B500AF0E4B1B68BF
:101B00000D4A43F4007313600B4B1B680A4A43F4FD
:101B100080631360084B1B68074A43F480731360AB
:101B2000032000F031F90F2000F008F8FFF734FE31
:101B30000023184680BD00BF003C024080B582B043
:101B400000AF7860124B1A68124B1B7819464FF49D
:101B50007A73B3FBF1F3B2FBF3F3184600F03BF9F1
:101B60000346002B01D001230EE07B680F2B0AD81F
:101B7000002279684FF0FF3000F011F9064A7B68C7
:101B80001360002300E0012318460837BD4680BDDE
:101B900000000020080000200400002080B400AFF6
:101BA000064B1B781A46064B1B681344044A136005
:101BB00000BFBD465DF8047B704700BF08000020F1
:101BC0004C02002080B400AF034B1B681846BD4692
:101BD0005DF8047B704700BF4C02002080B584B0E4
:101BE00000AF7860FFF7EEFFB8607B68FB60FB68D2
:101BF000B3F1FF3F05D00A4B1B781A46FB6813442C
:101C0000FB6000BFFFF7DEFF0246BB68D31AFA682D
:101C10009A42F7D800BF00BF1037BD4680BD00BF55
:101C20000800002080B485B000AF78607B6803F0C6
:101C30000703FB600C4BDB68BB60BA684FF6FF0321
:101C40001340BB60FB681A02BB68134343F0BF63D9
:101C500043F40033BB60044ABB68D36000BF143751
:101C6000BD465DF8047B704700ED00E080B400AF36
:101C7000044BDB681B0A03F007031846BD465DF8FA
:101C8000047B704700ED00E080B483B000AF0346F2
:101C90003960FB7197F90730002B0ADB3B68DAB239
:101CA0000C4997F907301201D2B20B4483F8002394
:101CB0000AE03B68DAB20849FB7903F00F03043B02
:101CC0001201D2B20B441A7600BF0C37BD465DF844
:101CD000047B704700E100E000ED00E080B489B0D3
:101CE00000AFF860B9607A60FB6803F00703FB613E
:101CF000FB69C3F10703042B28BF0423BB61FB6905
:101D00000433062B02D9FB69033B00E000237B610F
:101D10004FF0FF32BB6902FA03F3DA43BB681A40A3
:101D20007B699A404FF0FF317B6901FA03F3D94395
:101D30007B680B40134318462437BD465DF8047B8F
:101D40007047000080B582B000AF78607B68013BCF
:101D5000B3F1807F01D301230FE00A4A7B68013B86
:101D600053600F214FF0FF30FFF78EFF054B00222D
:101D70009A60044B07221A60002318460837BD46B4
:101D800080BD00BF10E000E080B582B000AF786099
:101D90007868FFF747FF00BF0837BD4680BD80B5B4
:101DA00086B000AF0346B9607A60FB7300237B61A5
:101DB000FFF75CFF78617A68B9687869FFF78EFF92
:101DC000024697F90F3011461846FFF75DFF00BF36
:101DD0001837BD4680BD80B582B000AF78607868A6
:101DE000FFF7B0FF034618460837BD4680BD000028
:101DF00080B489B000AF7860396000237B61002334
:101E00003B610023BB610023FB6159E10122FB69B7
:101E100002FA03F37B613B681B687A6913403B61FC
:101E20003A697B699A4240F048813B685B6803F0FD
:101E30000303012B05D03B685B6803F00303022B0F
:101E400030D17B689B68BB61FB695B00032202FAAF
:101E500003F3DB43BA691340BB613B68DA68FB6993
:101E60005B0002FA03F3BA691343BB617B68BA698A
:101E70009A607B685B68BB610122FB6902FA03F32D
:101E8000DB43BA691340BB613B685B681B0903F025
:101E90000102FB6902FA03F3BA691343BB617B6871
:101EA000BA695A603B685B6803F00303032B17D0E1
:101EB0007B68DB68BB61FB695B00032202FA03F30A
:101EC000DB43BA691340BB613B689A68FB695B00FE
:101ED00002FA03F3BA691343BB617B68BA69DA603B
:101EE0003B685B6803F00303022B23D1FB69DA082C
:101EF0007B68083253F82230BB61FB6903F00703AB
:101F00009B000F2202FA03F3DB43BA691340BB6163
:101F10003B681A69FB6903F007039B0002FA03F3AD
:101F2000BA691343BB61FB69DA087B680832B96997
:101F300043F822107B681B68BB61FB695B000322CE
:101F400002FA03F3DB43BA691340BB613B685B6889
:101F500003F00302FB695B0002FA03F3BA6913435F
:101F6000BB617B68BA691A603B685B6803F4403305
:101F7000002B00F0A2800023FB60574B5B6C564A9D
:101F800043F480435364544B5B6C03F48043FB6025
:101F9000FB68524AFB699B08023352F82330BB614D
:101FA000FB6903F003039B000F2202FA03F3DB43F8
:101FB000BA691340BB617B68494A934219D07B6878
:101FC000484A934213D07B68474A93420DD07B68BE
:101FD000464A934207D07B68454A934201D1042385
:101FE00008E0072306E0032304E0022302E00123C4
:101FF00000E00023FA6902F0030292009340BA69FC
:102000001343BB613549FB699B080233BA6941F848
:102010002320384B9B68BB613B69DB43BA691340A3
:10202000BB613B685B6803F48013002B03D0BA6983
:102030003B691343BB612F4ABB6993602D4BDB683F
:10204000BB613B69DB43BA691340BB613B685B68BA
:1020500003F40013002B03D0BA693B691343BB613F
:10206000244ABB69D360234B5B68BB613B69DB439C
:10207000BA691340BB613B685B6803F40033002B13
:1020800003D0BA693B691343BB611A4ABB69536009
:10209000184B1B68BB613B69DB43BA691340BB61EA
:1020A0003B685B6803F48033002B03D0BA693B695B
:1020B0001343BB610F4ABB691360FB690133FB61CA
:1020C000FB690F2B7FF6A2AE00BF00BF2437BD46D1
:1020D0005DF8047B704700BF0038024000380140C3
:1020E000000002400004024000080240000C0240D0
:1020F00000100240003C014080B485B000AF786021
:102100000B467B807B681A697B881340002B02D0CA
:102110000123FB7301E00023FB73FB7B184614379C
:10212000BD465DF8047B704780B483B000AF786033
:102130000B467B8013467B707B78002B03D07A881C
:102140007B689A6103E07B881A047B689A6100BF10
:102150000C37BD465DF8047B7047000080B586B043
:1021600000AF78607B68002B01D1012367E27B68B8
:102170001B6803F00103002B75D0884B9B6803F0AC
:102180000C03042B0CD0854B9B6803F00C03082B2D
:1021900012D1824B5B6803F48003B3F5800F0BD13F
:1021A0007E4B1B6803F40033002B5BD07B685B68BD
:1021B000002B57D1012342E27B685B68B3F5803F77
:1021C00006D1764B1B68754A43F4803313601DE0DB
:1021D0007B685B68B3F5A02F0CD1704B1B686F4A0E
:1021E00043F4802313606D4B1B686C4A43F48033C7
:1021F00013600BE0694B1B68684A23F4803313605B
:10220000664B1B68654A23F4802313607B685B6818
:10221000002B13D0FFF7D6FC386108E0FFF7D2FCA3
:1022200002463B69D31A642B01D9032307E25B4BB7
:102230001B6803F40033002BF0D014E0FFF7C2FC5E
:10224000386108E0FFF7BEFC02463B69D31A642BF5
:1022500001D90323F3E1514B1B6803F40033002B36
:10226000F0D100E000BF7B681B6803F00203002B85
:1022700063D04A4B9B6803F00C03002B0BD0474BF9
:102280009B6803F00C03082B1CD1444B5B6803F4E0
:102290008003002B16D1414B1B6803F00203002B77
:1022A00005D07B68DB68012B01D00123C7E13B4BE4
:1022B0001B6823F0F8027B681B69DB003749134376
:1022C0000B603AE07B68DB68002B20D0344B0122A6
:1022D0001A60FFF777FC386108E0FFF773FC0246ED
:1022E0003B69D31A022B01D90323A8E12B4B1B68AE
:1022F00003F00203002BF0D0284B1B6823F0F802F8
:102300007B681B69DB00254913430B6015E0244BF8
:1023100000221A60FFF756FC386108E0FFF752FC14
:1023200002463B69D31A022B01D9032387E11B4BD9
:102330001B6803F00203002BF0D17B681B6803F0DD
:102340000803002B36D07B685B69002B16D0154B39
:1023500001221A60FFF736FC386108E0FFF732FC13
:1023600002463B69D31A022B01D9032367E10B4BC9
:102370005B6F03F00203002BF0D01BE0094B00223F
:102380001A60FFF71FFC38610EE0FFF71BFC0246E6
:102390003B69D31A022B07D9032350E100380240CE
:1023A00000004742800E4742884B5B6F03F00203F8
:1023B000002BEAD17B681B6803F00403002B00F0BC
:1023C00097800023FB75814B1B6C03F08053002B1F
:1023D0000FD10023BB607D4B1B6C7C4A43F08053C4
:1023E00013647A4B1B6C03F08053BB60BB68012302
:1023F000FB75774B1B6803F48073002B18D1744B6B
:102400001B68734A43F480731360FFF7DBFB38618A
:1024100008E0FFF7D7FB02463B69D31A022B01D92C
:1024200003230CE16A4B1B6803F48073002BF0D08C
:102430007B689B68012B06D1644B1B6F634A43F09A
:10244000010313671CE07B689B68052B0CD15F4B75
:102450001B6F5E4A43F0040313675C4B1B6F5B4AC0
:1024600043F0010313670BE0584B1B6F574A23F0EF
:1024700001031367554B1B6F544A23F00403136782
:102480007B689B68002B15D0FFF79CFB38610AE046
:10249000FFF798FB02463B69D31A41F28832934218
:1024A00001D90323CBE0494B1B6F03F00203002B40
:1024B000EED014E0FFF786FB38610AE0FFF782FBFD
:1024C00002463B69D31A41F28832934201D9032371
:1024D000B5E03E4B1B6F03F00203002BEED1FB7DFA
:1024E000012B05D1394B1B6C384A23F08053136400
:1024F0007B689B69002B00F0A180344B9B6803F044
:102500000C03082B5CD07B689B69022B41D1314BBB
:1025100000221A60FFF756FB386108E0FFF752FB14
:1025200002463B69D31A022B01D9032387E0274BCC
:102530001B6803F00073002BF0D17B68DA697B68BD
:102540001B6A1A437B685B6A9B011A437B689B6A20
:102550005B08013B1B041A437B68DB6A1B061B49B3
:1025600013434B601B4B01221A60FFF72BFB3861B2
:1025700008E0FFF727FB02463B69D31A022B01D97B
:1025800003235CE0114B1B6803F00073002BF0D0B9
:1025900054E0104B00221A60FFF714FB386108E08A
:1025A000FFF710FB02463B69D31A022B01D9032324
:1025B00045E0064B1B6803F00073002BF0D13DE0B3
:1025C0007B689B69012B07D1012338E0003802406A
:1025D00000700040600047421B4B5B68FB607B68FB
:1025E0009B69012B28D0FB6803F480027B68DB69C0
:1025F0009A4221D1FB6803F03F027B681B6A9A4232
:102600001AD1FA6847F6C07313407A68526A920189
:10261000934211D1FB6803F440327B689B6A5B08EC
:10262000013B1B049A4207D1FB6803F070627B6890
:10263000DB6A1B069A4201D0012300E00023184602
:102640001837BD4680BD00BF0038024080B584B059
:1026500000AF786039607B68002B01D10123CCE0AA
:10266000684B1B6803F007033A689A420CD9654B24
:102670003A68D2B21A70634B1B6803F007033A68DA
:102680009A4201D00123B8E07B681B6803F0020383
:10269000002B20D07B681B6803F00403002B05D0BF
:1026A000594B9B68584A43F4E05393607B681B681E
:1026B00003F00803002B05D0534B9B68524A43F4A8
:1026C00060439360504B9B6823F0F0027B689B68EB
:1026D0004D4913438B607B681B6803F00103002B9B
:1026E00044D07B685B68012B07D1474B1B6803F420
:1026F0000033002B19D101237FE07B685B68022B3C
:1027000003D07B685B68032B07D13F4B1B6803F04A
:102710000073002B09D101236FE03B4B1B6803F0D2
:102720000203002B01D1012367E0374B9B6823F0A4
:1027300003027B685B68344913438B60FFF742FAFE
:10274000F8600AE0FFF73EFA0246FB68D31A41F24E
:102750008832934201D903234FE02B4B9B6803F04F
:102760000C027B685B689B009A42EBD1254B1B688F
:1027700003F007033A689A420CD2224B3A68D2B26D
:102780001A70204B1B6803F007033A689A4201D085
:10279000012332E07B681B6803F00403002B08D0A0
:1027A000194B9B6823F4E0527B68DB68164913439E
:1027B0008B607B681B6803F00803002B09D0124B69
:1027C0009B6823F460427B681B69DB000E4913435E
:1027D0008B6000F021F802460B4B9B681B0903F04D
:1027E0000F030A49CB5C22FA03F3094A1360094B31
:1027F0001B681846FFF7A2F9002318461037BD469C
:1028000080BD00BF003C02400038024074610008F7
:1028100000000020040000202DE9B04F94B000AF6C
:1028200000237B640023FB6400233B640023BB6420
:10283000794B9B6803F00C03082B0DD0082B00F29A
:10284000E180002B02D0042B03D0DBE0734BBB6490
:10285000DBE0734BBB64D8E06F4B5B6803F03F0376
:102860007B646D4B5B6803F48003002B63D06A4B81
:102870005B689B090022BB63FA63BB6BC3F308036D
:102880003B6300237B63D7E90C4522462B464FF080
:1028900000004FF00001590141EAD26150010246A7
:1028A0000B462146511A3961294663EB01037B61CE
:1028B0004FF000024FF00003D7E904AB59468B01FB
:1028C000514643EA916351468A015146B2EB0108F1
:1028D000594663EB01094FF000024FF000034FEA45
:1028E000C90343EA58734FEAC80290469946234603
:1028F00018EB0303BB602B4649EB0303FB604FF06F
:1029000000024FF00003D7E9024529464B02214659
:1029100043EAD15321464A02104619467B6C0022F5
:10292000BB62FA62D7E90A23FEF796F902460B4624
:102930001346FB6458E0384B5B689B09002218463D
:102940001146C0F308033B6200237B62D7E9088984
:1029500042464B464FF000004FF00001590141EA5A
:10296000D261500102460B464146B2EB010A49468C
:1029700063EB010B4FF000024FF000034FEA8B13A3
:1029800043EA9A634FEA8A12B2EB0A0463EB0B053F
:102990004FF000024FF00003EB0043EA5473E200F3
:1029A00014461D464346E3183B604B4645EB030384
:1029B0007B604FF000024FF00003D7E90045294645
:1029C0008B02214643EA915321468A02104619465A
:1029D0007B6C0022BB61FA61D7E90623FEF73CF964
:1029E00002460B461346FB640B4B5B681B0C03F063
:1029F000030301335B003B64FA6C3B6CB2FBF3F303
:102A0000BB6402E0054BBB6400BFBB6C184650378B
:102A1000BD46BDE8B08F00BF003802400024F4007E
:102A200000127A0080B582B000AF78607B68002B1E
:102A300001D1012341E07B6893F83D30DBB2002BEC
:102A400006D17B68002283F83C207868FEF7CCFE34
:102A50007B68022283F83D207B681A687B68043318
:102A60001946104600F0A0F97B68012283F8462041
:102A70007B68012283F83E207B68012283F83F2097
:102A80007B68012283F840207B68012283F8412083
:102A90007B68012283F842207B68012283F843206F
:102AA0007B68012283F844207B68012283F845205B
:102AB0007B68012283F83D20002318460837BD4675
:102AC00080BD000080B584B000AF786039603B689D
:102AD000002B09D17B6893F83E30DBB2012B14BF89
:102AE00001230023DBB222E03B68042B09D17B6881
:102AF00093F83F30DBB2012B14BF01230023DBB27C
:102B000015E03B68082B09D17B6893F84030DBB2B5
:102B1000012B14BF01230023DBB208E07B6893F88C
:102B20004130DBB2012B14BF01230023DBB2002BA9
:102B300001D0012368E03B68002B04D17B680222AE
:102B400083F83E2013E03B68042B04D17B6802220B
:102B500083F83F200BE03B68082B04D17B680222FE
:102B600083F8402003E07B68022283F841207B68E1
:102B70001B6801223968184600F022FB7B681B683D
:102B8000234A934207D17B681B685A6C7B681B6899
:102B900042F400425A647B681B681D4A934218D075
:102BA0007B681B68B3F1804F13D07B681B68194AA0
:102BB00093420ED07B681B68174A934209D07B680A
:102BC0001B68164A934204D07B681B68144A9342E0
:102BD00011D17B681B689B6803F00703FB60FB68EF
:102BE000062B10D07B681B681A687B681B6842F054
:102BF00001021A6007E07B681B681A687B681B6823
:102C000042F001021A60002318461037BD4680BD0D
:102C1000000001400004004000080040000C00409B
:102C20000040014080B586B000AFF860B9607A60BE
:102C30000023FB75FB6893F83C30012B01D1022384
:102C4000AEE0FB68012283F83C207B680C2B00F28D
:102C50009F8001A252F823F08D2C0008912D0008CE
:102C6000912D0008912D0008CD2C0008912D000811
:102C7000912D0008912D00080F2D0008912D0008BE
:102C8000912D0008912D00084F2D0008FB681B684E
:102C9000B968184600F008F9FB681B689A69FB6878
:102CA0001B6842F008029A61FB681B689A69FB681E
:102CB0001B6822F004029A61FB681B689969BB6873
:102CC0001A69FB681B680A439A6164E0FB681B6829
:102CD000B968184600F04EF9FB681B689A69FB68F2
:102CE0001B6842F400629A61FB681B689A69FB6882
:102CF0001B6822F480629A61FB681B689969BB6853
:102D00001B691A02FB681B680A439A6143E0FB686F
:102D10001B68B968184600F099F9FB681B68DA6906
:102D2000FB681B6842F00802DA61FB681B68DA691D
:102D3000FB681B6822F00402DA61FB681B68D96932
:102D4000BB681A69FB681B680A43DA6123E0FB6809
:102D50001B68B968184600F0E3F9FB681B68DA697C
:102D6000FB681B6842F40062DA61FB681B68DA6981
:102D7000FB681B6822F48062DA61FB681B68D96912
:102D8000BB681B691A02FB681B680A43DA6102E030
:102D90000123FB7500BFFB68002283F83C20FB7D0C
:102DA00018461837BD4680BD80B485B000AF786046
:102DB00039607B681B68FB607B68344A93420FD0A4
:102DC0007B68B3F1804F0BD07B68314A934207D0C8
:102DD0007B68304A934203D07B682F4A934208D1E4
:102DE000FB6823F07003FB603B685B68FA68134381
:102DF000FB607B68254A93421BD07B68B3F1804F10
:102E000017D07B68224A934213D07B68214A9342B1
:102E10000FD07B68204A93420BD07B681F4A9342B5
:102E200007D07B681E4A934203D07B681D4A9342B9
:102E300008D1FB6823F44073FB603B68DB68FA68E9
:102E40001343FB60FB6823F080023B685B6913431C
:102E5000FB607B68FA681A603B689A687B68DA6294
:102E60003B681A687B689A627B68084A934203D180
:102E70003B681A697B681A637B6801225A6100BF4C
:102E80001437BD465DF8047B704700BF0000014069
:102E90000004004000080040000C004000400140D9
:102EA000004401400048014080B487B000AF786022
:102EB00039607B681B6A23F001027B681A627B68B9
:102EC0001B6A7B617B685B683B617B689B69FB601D
:102ED000FB6823F07003FB60FB6823F00303FB60D7
:102EE0003B681B68FA681343FB607B6923F00203AD
:102EF0007B613B689B687A6913437B617B681C4AF2
:102F000093420CD17B6923F008037B613B68DB684B
:102F10007A6913437B617B6923F004037B617B68DF
:102F2000134A934211D13B6923F480733B613B699F
:102F300023F400733B613B685B693A6913433B616F
:102F40003B689B693A6913433B617B683A695A6005
:102F50007B68FA689A613B685A687B685A637B6849
:102F60007A691A6200BF1C37BD465DF8047B704762
:102F70000000014080B487B000AF786039607B68A2
:102F80001B6A23F010027B681A627B681B6A7B61F4
:102F90007B685B683B617B689B69FB60FB6823F433
:102FA000E043FB60FB6823F44073FB603B681B68F5
:102FB0001B02FA681343FB607B6923F020037B61EB
:102FC0003B689B681B017A6913437B617B681E4ADF
:102FD00093420DD17B6923F080037B613B68DB6802
:102FE0001B017A6913437B617B6923F040037B619A
:102FF0007B68154A934213D13B6923F480633B619C
:103000003B6923F400633B613B685B699B003A6961
:1030100013433B613B689B699B003A6913433B61E7
:103020007B683A695A607B68FA689A613B685A68BB
:103030007B689A637B687A691A6200BF1C37BD4659
:103040005DF8047B704700BF0000014080B487B08A
:1030500000AF786039607B681B6A23F480727B68FC
:103060001A627B681B6A7B617B685B683B617B687B
:10307000DB69FB60FB6823F07003FB60FB6823F0F7
:103080000303FB603B681B68FA681343FB607B69C2
:1030900023F400737B613B689B681B027A691343CE
:1030A0007B617B681D4A93420DD17B6923F40063E9
:1030B0007B613B68DB681B027A6913437B617B6938
:1030C00023F480637B617B68144A934213D13B698C
:1030D00023F480533B613B6923F400533B613B681D
:1030E0005B691B013A6913433B613B689B691B01A8
:1030F0003A6913433B617B683A695A607B68FA68B6
:10310000DA613B685A687B68DA637B687A691A62BD
:1031100000BF1C37BD465DF8047B704700000140CE
:1031200080B487B000AF786039607B681B6A23F495
:1031300080527B681A627B681B6A3B617B685B68B4
:103140007B617B68DB69FB60FB6823F4E043FB6029
:10315000FB6823F44073FB603B681B681B02FA6842
:103160001343FB603B6923F400533B613B689B685E
:103170001B033A6913433B617B68104A934209D1B0
:103180007B6923F480437B613B685B699B017A69BF
:1031900013437B617B687A695A607B68FA68DA61FD
:1031A0003B685A687B681A647B683A691A6200BF98
:1031B0001C37BD465DF8047B704700BF000001402E
:1031C00080B487B000AFF860B9607A60BB6803F084
:1031D0001F03012202FA03F37B61FB681A6A7B6911
:1031E000DB431A40FB681A62FB681A6ABB6803F08B
:1031F0001F03796801FA03F31A43FB681A6200BFE0
:103200001C37BD465DF8047B7047000080B485B074
:1032100000AF786039607B6893F83C30012B01D1B6
:10322000022350E07B68012283F83C207B68022265
:1032300083F83D207B681B685B68FB607B681B68CC
:103240009B68BB60FB6823F07003FB603B681B68F6
:10325000FA681343FB607B681B68FA685A607B68F6
:103260001B681C4A934218D07B681B68B3F1804FDF
:1032700013D07B681B68184A93420ED07B681B688A
:10328000164A934209D07B681B68154A934204D0C2
:103290007B681B68134A93420CD1BB6823F0800300
:1032A000BB603B685B68BA681343BB607B681B68A4
:1032B000BA689A607B68012283F83D207B6800220F
:1032C00083F83C20002318461437BD465DF8047B84
:1032D000704700BF000001400004004000080040AB
:1032E000000C004000400140014B1868704700BFCF
:1032F0000C00002070B50D4D0D4C641BA410002671
:10330000A64209D10B4D0C4C02F002FF641BA41025
:103310000026A64205D170BD55F8043B98470136FA
:10332000EEE755F8043B98470136F2E7646500087C
:103330006465000864650008686500080244034687
:10334000934200D1704703F8011BF9E72DE9FF47CD
:1033500055EC104B002D0E4619462B46BBBF05F110
:1033600000431D4600232D230B700D9BDDF830A07C
:10337000914623F02008BCBF22461446B8F1460F00
:1033800005D0B8F1450F00D10136022100E003213C
:1033900003AB019302AB009345EC104B534632460E
:1033A00000F0EAFCB8F1470F074602D119F0010F0F
:1033B00022D0B8F1460F07EB060910D13B78302B2D
:1033C0000AD10022002320462946FDF785FB18B9C3
:1033D000C6F10106CAF80060DAF80030994400220C
:1033E000002320462946FDF777FB08B1CDF80C9065
:1033F0003022039B4B4507D3039B0E9ADB1B3846B9
:10340000136004B0BDE8F087591C03911A70F0E70F
:10341000F7B503460029B8BF494203F8022BB4BFF1
:103420002D222B22092942702ADD0DF10704A44622
:103430000A27A6460A4691FBF7F607FB1615303514
:10344000632A04F1FF340EF8015C3146F1DC3031BF
:10345000AEF1020504F8011C441C294661450AD35B
:103460000DF10902A2EB0E02654588BF002213444C
:10347000181A03B0F0BD11F8012B04F8012FEDE785
:10348000302330318370C170031DF1E72DE9F04F17
:103490002DED028B8DB00C46DDF8608016461F4680
:1034A000054601F057FAD0F800A05046FCF798FE08
:1034B00000230A9323680593D8F8003094F818B0D5
:1034C000073323F0070303F10802C8F80020D3E90B
:1034D0000023C4E91223D4E9128929F00043079399
:1034E000CDF8188008EE100A9F4BDDE906014FF079
:1034F000FF32FDF723FB88BBDDE906019A4B4FF055
:10350000FF32FDF7FDFA48BB002200234046494642
:10351000FDF7ECFA10B12D2384F84330934B944817
:10352000BBF1470F94BF9846804603232361059B58
:1035300023F0040222604FF00009009733460BAAE3
:103540002146284600F0D8F9013040F090804FF035
:10355000FF300DB0BDEC028BBDE8F08F42464B460C
:1035600040464946FDF7EAFA40B14B46002BBCBF46
:103570002D2384F843307F487F4BD1E763680BF0FD
:10358000DF0206925A1C3FD106236360059B6168E7
:1035900043F48062002303930AABCDE901B309AB86
:1035A00049EC108B009322600DF123032846FFF7AE
:1035B000CDFE069B0999472B804608D1C81C02DB2B
:1035C0006368994241DDABF1020B5FFA8BFBBBF103
:1035D000650F20D801395A4604F150000991FFF7D0
:1035E00017FF0A9A1318012A8146236102DC226818
:1035F000D20701D5013323619DF82330002B9CD0E5
:103600002D2384F8433098E7069A472ABED1002B31
:10361000BCD10123B9E7BBF1660F18D1002963685B
:103620000BDD216113B92268D00702D501330B44A9
:103630002361A1654FF00009DEE713B92268D207C4
:1036400001D50233F4E70123F2E74FF0670B0A9B41
:10365000994205DB23682161D807EAD54B1CE7E7CF
:103660000029D4BFC1F1020201221344E0E723681C
:103670005A0507D42369424631462846B8470130E7
:103680002CD164E7BBF1650F40F2E080D4E9120170
:1036900000220023FDF720FA002834D0374A012306
:1036A00031462846B84701303FF451AFDDE90923E0
:1036B0009A4202DB2368D80710D518EE103A52461A
:1036C00031462846B84701303FF441AF4FF000087B
:1036D00004F11A090A9B013B434509DC23689B0757
:1036E00000F10581E0680B9B9842B8BF184630E7AF
:1036F00001234A4631462846B84701303FF427AFF8
:1037000008F10108E6E7099B002B39DC1B4A01237D
:1037100031462846B84701303FF419AFDDE90923A7
:10372000134302D12368D907D8D518EE103A524670
:1037300031462846B84701303FF409AF4FF0000941
:1037400004F11A0A099B5B424B4501DC0A9B92E794
:103750000123524631462846B84701303FF4F7AEC0
:1037600009F10109EEE700BFFFFFEF7F8861000864
:103770008C6100089461000890610008986100085D
:103780000A9AA36D9A42A8BF1A46002A914637DCCE
:103790004FF0000B29EAE97904F11A02A36D0593B1
:1037A000A3EB09035B4533DCDDE909239A423BDBEC
:1037B0002368DA0738D40A9B059A09999A1AA3EB69
:1037C00001099145A8BF9146B9F1000F35DC4FF0D2
:1037D000000829EAE97904F11A0ADDE909239B1AAC
:1037E000A3EB090343457FF779AF012352463146E6
:1037F0002846B84701303FF4AAAE08F10108ECE7CB
:103800001346314642462846B8470130C0D19EE6AD
:103810000123314628460592B84701303FF497AE60
:10382000059A0BF1010BB9E718EE103A52463146F2
:103830002846B8470130BED189E6059A4B46424436
:1038400031462846B8470130C1D180E60A9A012A9C
:1038500001DCDB0738D50123424631462846B8470C
:1038600001303FF474AE18EE103A52463146284605
:10387000B84701303FF46BAED4E9120100220023B7
:10388000FDF72AF9D8B90A9B08F10102013B31463C
:103890002846B84701300ED159E601235246314639
:1038A0002846B84701303FF452AE08F101080A9BA0
:1038B000013B4345F1DC4B4604F15002DCE64FF09E
:1038C000000804F11A0AF2E701234246DFE7012368
:1038D0004A4631462846B84701303FF438AE08F131
:1038E0000108E3680B995B1A4345F0DCFAE64FF0F8
:1038F000000804F11909F4E72DE9F0471646994646
:103900008A680B69DDF820809342B8BF13463360A4
:1039100091F8432007460C460AB10133336023680F
:10392000990642BF336802333360256815F00605F7
:1039300006D104F1190AE36832689B1AAB4226DC0F
:1039400094F84320131E226818BF012392062BD43B
:1039500004F1430249463846C04701301ED023686F
:10396000E568326803F00603042B08BFAD1AA368AC
:1039700022690CBF25EAE57500259342C4BF9B1A56
:10398000ED1800261A34B5421AD1002008E00123B0
:10399000524649463846C047013003D14FF0FF3008
:1039A000BDE8F0870135C6E7E1185A1C302081F8E0
:1039B0004300224494F8451082F843100233C7E7CD
:1039C0000123224649463846C0470130E6D0013639
:1039D000D9E700002DE9FF470F7E0C9D782F914617
:1039E00080460C469A4601F1430207D8622F0AD856
:1039F000002F00F0D880582F00F0A38004F142057A
:103A000084F842703AE0A7F16303152BF6D801A1C0
:103A100051F823F06D3A0008813A0008FD3900089A
:103A2000FD390008FD390008FD390008813A000819
:103A3000FD390008FD390008FD390008FD3900088E
:103A40008D3B0008B13A00086F3B0008FD390008C3
:103A5000FD390008AF3B0008FD390008B13A000805
:103A6000FD390008FD390008773B00082B681A1D56
:103A70001B682A6004F1420584F842300123A3E068
:103A800020682968060601F104030AD50E682B6038
:103A9000002E03DA2D23764284F843305E480A2351
:103AA00019E00E682B6010F0400F18BF36B2EFE738
:103AB0002B682068191D2960010601D51E6802E0E7
:103AC0004606FBD51E8854486F2F0CBF08230A23D7
:103AD000002184F843106568A560002DA2BF21680D
:103AE00021F0040121600EB9002D4DD01546B6FB22
:103AF000F3F103FB1167C75D05F8017D3746BB4253
:103B00000E46F4D9082B0BD12368DE0708D52369AC
:103B100061689942DEBF302305F8013C05F1FF35AD
:103B2000521B2261CDF800A04B4603AA2146404615
:103B3000FFF7E2FE01304CD14FF0FF3004B0BDE89A
:103B4000F087354881F845702968236851F8046B7F
:103B500029601D0614D5DF0744BF43F0200323600E
:103B60001EB9236823F0200323601023B0E72368E5
:103B700043F0200323607823284884F84530E3E7A6
:103B8000590648BFB6B2E6E71546BBE72B6826687C
:103B90006169181D286035061B6801D5196002E0AF
:103BA0007006FBD51980002323611546BAE72B6800
:103BB0001A1D2A601D68626800212846FCF718FB60
:103BC00008B1401B606063682361002384F84330C0
:103BD000A8E723692A4649464046D0470130ABD082
:103BE00023689B0713D4E068039B9842B8BF18462C
:103BF000A4E70123324649464046D04701309BD0D6
:103C00000135E36803995B1AAB42F2DCEBE7002570
:103C100004F11906F5E700BF9A610008AB610008DE
:103C20000EB400B59CB01DAB029006906FF0004141
:103C3000094807910491094953F8042B059100683C
:103C4000019302A901F076FB029B00221A701CB0BE
:103C50005DF804EB03B070470C0000200802FFFF82
:103C60002DE9F74F03690C69A3420746C0F2818032
:103C7000013C01F1140800F1140505EB84030193E4
:103C800058F8243055F8242001339A424FEA840B27
:103C900008EB8409B2FBF3F631D34FF0000E404637
:103CA000AC46F24650F8042B93B206FB03E34FEA0E
:103CB000134E9BB2AAEB0303DCF800A0120C13FA1C
:103CC0008AF306FB02E20093009B4FEA124E92B287
:103CD000C2EB1A4202EB2342BDF80030814543EAB1
:103CE00002434CF8043B4FEA224ADBD255F80B3032
:103CF0002BB9019B043B9D421A462ED33C613846AA
:103D000001F0C4F8002824DB013628464FF0000CEF
:103D100058F8042BD0F800E093B2ACEB0303120C7C
:103D200013FA8EF3C2EB1E4202EB23429BB243EA2C
:103D30000243C14540F8043B4FEA224CE8D255F813
:103D4000242005EB840322B9043B9D421A460AD382
:103D50003C61304603B0BDE8F08F1268043B002A96
:103D6000CCD1013CC7E71268043B002AF0D1013CEA
:103D7000EBE70020EEE700002DE9F04F2DED048B7E
:103D800057EC106B93B0456ADDF88080069110EE19
:103D900010AA044609920C93BB4675B9102000F096
:103DA000DDFD0246606220B9A74BEA21A74801F079
:103DB000D1FBC0E901550560C560636A196851B15E
:103DC0005A684A60012393408B60204600F01CFE35
:103DD000636A00221A603B1EAABF002323F0004B37
:103DE000C8F800309A4BBCBF0122C8F8002033EA63
:103DF0000B031BD10C9A42F20F731360CBF3130326
:103E0000334300F09285219B63B9924B22E0924BA1
:103E100001930833219A1360019813B0BDEC048B11
:103E2000BDE8F08F8B4B01930333F3E700220023AF
:103E300050465946FCF750FE4BEC19AB804658B142
:103E40000C9A01231360219B002B00F06B858348A3
:103E50001860431E0193DFE74BEC10AB10AA11A9C9
:103E6000204601F0B9F8CBF30A5508EE100A002DF0
:103E700000F0848019EE903AC3F3130343F07F57A8
:103E8000564647F44017A5F2FF35CDF83880744BFD
:103E9000002230463946FCF7FFF965A3D3E9002339
:103EA000FCF7B2FB64A3D3E90023FCF7F7F906465D
:103EB00028460F46FCF73EFB61A3D3E90023FCF73D
:103EC000A3FB02460B4630463946FCF7E7F90646A7
:103ED0000F46FCF749FE0022009000233046394689
:103EE000FCF704FE50B10098FCF724FB32463B4639
:103EF000FCF7F2FD10B9009B013B0093009B162BD1
:103F00005AD8009A574B03EBC203D3E9002351EC74
:103F1000190BFCF7EBFD002850D0009B013B0093F0
:103F200000230B93109B5D1B6B1E059345BFC5F1D2
:103F300001030493002300234CBF05930493009BCB
:103F4000002B3DDB059B009A0A9213440593002346
:103F50000793069B092B00F28980052BC4BF043B05
:103F60000693069BA3F10203CCBF00250125032B7A
:103F700000F28780DFE803F02D3A3859DDE910536D
:103F80001D4405F23243202BC1BFC3F1400305F2AB
:103F900012400BFA03F326FA00F0DABFC3F1200354
:103FA00006FA03F01843FCF7B5FA01230646A1F11F
:103FB000F877013D0E936AE70123B2E70B90B1E772
:103FC000049B009A9B1A04935342079300230A937D
:103FD000BFE700230893099B002B55DC0123CDE9A3
:103FE00002331A4609920CE00123F3E70023099AF1
:103FF0000893009B134402930133012B0393B8BF32
:104000000123606A00224260042202F114069E42EB
:1040100041683DD9204600F0B7FC019000283BD113
:10402000114B02464FF4D571C0E60123DFE700BF14
:1040300061436F63A787D23FB3C8608B288AC63FAE
:10404000FB799F501344D33FC9610008E061000829
:104050000000F07FC5610008BC610008996100089C
:104060000000F83FD06200083B62000801250023F1
:10407000069308954FF0FF33CDE902330022122357
:10408000B0E701230893F5E7099BCDE90233B8E7D0
:10409000013141605200B8E7636A019A1A60039BDC
:1040A0000E2B00F29D80002D00F09A80009B002BCB
:1040B00032DDB74A03F00F0302EBC303D3E90089F3
:1040C000009BD8054FEA231716D5B24B51EC190BBC
:1040D000D3E90823FCF7C2FB07F00F0782468B46A3
:1040E0000325AC4E57B942464B4650465946FCF75D
:1040F000B5FB82468B4628E00225F2E7F90708D592
:1041000040464946D6E90023FCF77EFA0135804651
:1041100089467F100836E5E700F09B80009B9D4FA5
:104120005E429B4B06F00F0203EBC203D3E9002370
:1041300051EC190BFCF768FA361182468B460023C6
:104140000225002E7AD1002BD3D10B9B002B00F03F
:104150008280914B002250465946FCF7C7FC00284C
:1041600079D0039B002B76D0029B002B36DD009B81
:10417000504659465F1E0022884BFCF745FA029EC6
:1041800082468B4601352846FCF7D4F952465B46F9
:10419000FCF73AFA824B0022FCF780F8D046D94669
:1041A0008246A1F1507B002E58D17E4B0022404622
:1041B0004946FCF771F852465B4680468946FCF753
:1041C000B3FC002840F0958252460BF10043404674
:1041D0004946FCF78BFC002840F089825BEC19AB68
:1041E000119B002BC0F24881009A0E2A00F34481F3
:1041F000674B03EBC203D3E90089099B002B80F2D4
:10420000D580039B002B00F3D18040F06F82654B7B
:10421000002240464946FCF7F7F952465B46FCF758
:1042200079FC039E3746002840F04582019D3123EA
:1042300005F8013B009B0133009340E2F20705D5EE
:10424000D7E90023FCF7E0F90135012376100837A0
:1042500077E7022579E7009F039E94E701994C4B8D
:1042600031440D91089903EBC60353E90223002959
:1042700043D04D490020FCF7F1FA52465B46FCF76B
:104280000BF8019D82468B4649464046FCF76CFC84
:104290000646FCF74FF902460B4640464946FBF7F7
:1042A000FBFF303605F8016B52465B468046894677
:1042B000FCF71CFC002863D142464B4636490020DF
:1042C000FBF7EAFF52465B46FCF710FC002840F083
:1042D000B5800D9B9D4281D0304B002250465946FF
:1042E000FCF792F92D4B82468B4640464946002208
:1042F000FCF78AF980468946C6E750465946FCF7DE
:1043000083F90D9B019D0F9382468B46494640469B
:10431000FCF72AFC0646FCF70DF9303602460B4640
:1043200040464946FBF7B8FF05F8016B0D9B9D42DF
:10433000804689464FF0000224D11B4B5046594617
:10434000FBF7ACFF02460B4640464946FCF7ECFB48
:10435000002873D152465B4613490020FBF79CFFAF
:1043600002460B4640464946FCF7C0FB00283FF496
:1043700035AF0F9D6B1E0F9315F8013C302BF8D015
:10438000009749E0054BFCF73FF980468946BDE7B9
:10439000D0620008A86200080000F03F000024403E
:1043A00000001C40000014400000E03F019D564604
:1043B0005F4642464B4630463946FCF74FFAFCF71B
:1043C000D3FB8246FCF7B6F842464B46FCF71CF995
:1043D00002460B46304639460AF13006FBF75CFFD1
:1043E00005F8016B019E039FAE1BB74202460B46C8
:1043F00035D1FBF753FF42464B4606460F46FCF7C6
:1044000093FBD0B942464B4630463946FCF764FB35
:1044100010B11AF0010F10D1204618EE101A00F05A
:10442000F3FA002300982B700C9B01301860219B3D
:10443000002B3FF4F1AC1D60EEE4009F2B461D46BF
:1044400013F8012D392A06D1019A9A42F7D1019920
:10445000302201370A701A7801321A7090E7A64BA1
:104460000022FCF7D1F80022002306460F46FCF795
:1044700033FB00289DD0CFE7089A002A00F0D780B0
:10448000069A012A00F3BA800E9A002A00F0B28040
:1044900003F23343079E049D049A1A440492059A3A
:1044A00001211A442046059200F066FB0746002DC4
:1044B0000CDD059B002B09DDAB42049AA8BF2B46FF
:1044C000D21A0492059AED1AD31A0593079B1BB3CF
:1044D000089B002B00F0AF80002E13DD39463246DA
:1044E000204600F009FC18EE102A01460746204637
:1044F00000F058FB18EE101A8046204600F084FAAF
:1045000008EE108A079B9A1B06D018EE101A204658
:1045100000F0F2FB08EE100A0121204600F02CFB0F
:104520000A9B002B064640F388801A460146204627
:1045300000F0E2FB069B012B064640F381804FF022
:104540000008336906EB8303186900F0C5FAC0F16F
:104550002000059B184410F01F0000F09280C0F16D
:104560002003042B40F38A80C0F11C00049B034409
:104570000493059B034405440593049B002B07DD2E
:1045800018EE101A1A46204600F010FC08EE100A29
:10459000059B002B05DD31461A46204600F006FC3F
:1045A00006460B9B002B6ED018EE100A314600F029
:1045B0006DFC002867DA009B013B18EE101A00938F
:1045C0000A220023204600F041FA089B08EE100A58
:1045D000002B00F0B181002339460A22204600F06A
:1045E00035FA029B002B074600F38E80069B022BB8
:1045F00051DC89E0109BC3F136034BE7039B5E1E41
:10460000079BB342BFBF079B0796F21A0A9BB6BF30
:104610009B189E1B0A93039BB8BF0026002BB7BFB5
:10462000DDE90323DDE903359D1A002334E7079E06
:10463000049D089F3BE7079A67E7069B012B18DC60
:10464000BAF1000F15D1CBF3130393B92BF000434C
:104650001B0D1B0583B1049B01330493059B0133A0
:1046600005934FF001080A9B002B7FF46AAF0120ED
:104670006FE74FF00008F6E79846F4E73FF47DAFA8
:1046800018461C3072E7039B002B37DC069B022B7D
:1046900034DD039B0293029B6BB931460522204611
:1046A00000F0D4F90146064618EE100A00F0EEFBC1
:1046B00000283FF7BBAD099B019DDB4300934FF002
:1046C00000083146204600F09FF9002F3FF4A4AEC9
:1046D000B8F1000F05D0B84503D04146204600F0A0
:1046E00093F93946204600F08FF995E600263746C3
:1046F000E1E70097374699E500002440089B002B2E
:1047000000F0CA80039B0293002D05DD39462A463E
:10471000204600F04BFB0746B8F1000F5BD07968EC
:10472000204600F031F9054628B9874B024640F291
:10473000EA21FFF73BBB3A690232920007F10C0114
:104740000C3000F013F901222946204600F02EFB20
:10475000019B03F10109DDE90123134405930AF0EC
:104760000103B84604930746314618EE100AFFF7D6
:1047700077FA4146029000F1300A18EE100A00F074
:1047800085FB3A4603903146204600F09BFBC26809
:1047900009F1FF3B054602BB014618EE100A00F086
:1047A00075FB024629462046079200F02DF9DDE907
:1047B000063243EA0201049B0B434D460FD1BAF186
:1047C000390F2AD0039B002B02DD029B03F1310A33
:1047D0008BF800A075E73846BAE70122E2E7039BB1
:1047E000002B04DB06990B4304990B4322D1002ACA
:1047F000EEDD18EE101A0122204600F0D7FA3146FD
:1048000008EE100A00F042FB002803DCE0D11AF0A9
:10481000010FDDD0BAF1390FD7D139238BF8003031
:104820002B461D46013B15F8012C392A71D0013267
:104830001A7046E7002A07DDBAF1390FEDD00AF108
:1048400001038BF800303CE7059B09F801AC994562
:1048500047D018EE101A00230A22204600F0F6F87E
:10486000B84508EE100A4FF000034FF00A02414627
:10487000204606D100F0EAF88046074609F1010912
:1048800072E700F0E3F83946804600230A2220460A
:1048900000F0DCF80746F1E7039B0293019D18EE58
:1048A000100A3146FFF7DCF900F1300A019B05F8E8
:1048B00001ABEA1A029B934209DD18EE101A00239D
:1048C0000A22204600F0C2F808EE100AE7E7029B31
:1048D000002BC8BF1D46019BD8BF01251D444FF0CA
:1048E000000818EE101A0122204600F05FFA314647
:1048F00008EE100A00F0CAFA002891DC02D11AF082
:10490000010F8DD12B461D4613F8012D302AFAD008
:10491000D7E6019A9A4284D1009B01330093312358
:104920001370CEE6094BFFF795BA219B002B7FF45D
:104930006EAA074BFFF78EBA029B002BAEDC069BDC
:10494000022B3FF7A8AEA9E73B6200089861000878
:10495000BC6100080048704760010020024B01461E
:10496000186800F017BC00BF0C0000200A449142F8
:1049700000F1FF3300D1704710B511F8014B03F877
:10498000014F9142F9D110BD70B5466A04460D46FB
:1049900076B91020FFF7E2FF0246606220B9184B9B
:1049A0001848662100F0D6FDC0E901660660C660C1
:1049B000666AF36883B1636ADB6853F82500B8B9A7
:1049C000012101FA05F6721D9200204600F060FBFD
:1049D00060B1C0E901560EE021220421204600F01A
:1049E00057FB636AF060DB68002BE4D1002070BDE8
:1049F000026843F825200023C0E90333F7E700BF2E
:104A0000C96100084C62000870B5466A05460C464C
:104A100076B91020FFF7A2FF0246686220B9094B61
:104A200009488A2100F096FDC0E901660660C6606B
:104A30003CB16B6A6268DB6853F82210216043F86E
:104A4000224070BDC96100084C6200082DE9F041A8
:104A50000D6907460C461E4601F1140C0020DCF8D7
:104A6000003099B202FB01611E0C0B0C02FB0633F5
:104A700089B2013001EB034185424CF8041B4FEA37
:104A80001346ECDC0EB3A368AB4219DC6168384610
:104A90000131FFF779FF804628B902460C4B0D48DB
:104AA000B52100F057FD2269023204F10C01920099
:104AB0000C30FFF75BFF21463846FFF7A5FF444661
:104AC00004EB850301355E6125612046BDE8F08178
:104AD0003B6200084C620008030C1B04D3B90004BD
:104AE000102310F07F4F04BF0002083310F0704F06
:104AF00004BF0001043310F0404F04BF80000233B4
:104B0000002805DB10F0804F03F1010308BF2023CC
:104B1000184670470023E4E7036813F007020146D4
:104B20000BD0DA0723D4980749BF5B089B08012004
:104B30000B605CBF0B600220704798B2A8B91B0CD9
:104B40001020DAB20AB908301B0A1A0704BF1B0981
:104B500004309A0704BF9B080230DA0703D45B08CD
:104B600000F1010005D00B6070471046E9E7002016
:104B7000704720207047000010B50C460121FFF758
:104B800003FF024628B9054B05484FF4A07100F019
:104B9000E1FC01234461036110BD00BF3B620008DA
:104BA0004C6200082DE9F04F91460A69D9F810309F
:104BB0009A42B8BF0B460C46BCBF4C469946276983
:104BC000D9F810A0A368616807EB0A06B34285B064
:104BD000B8BF0131FFF7D8FE30B90246444B454813
:104BE00040F25D1100F0B6FC00F1140505EB8608FB
:104BF0002B460022434521D304F1140303EB87071E
:104C000009F1140303EB8A0202923A1B153A22F0CF
:104C10000302043204F115018F4238BF04220192CD
:104C2000029A03939A420CD8002E03DD58F8043DF3
:104C3000002B5AD0066105B0BDE8F08F43F8042B75
:104C4000D8E7B3F800A0BAF1000F24D004F1140E95
:104C5000A9464FF0000C5EF8042BD9F800101FFA9B
:104C600082FB89B20AFB0B114FEA124BD9F80020E4
:104C700061444FEA124C0AFB0BC202EB114289B2AB
:104C800041EA0241774549F8041B4FEA124CE2D849
:104C9000019A45F802C0039AB2F802900433B9F1C0
:104CA000000F20D0296804F1140CAE464FF0000A22
:104CB000BCF800B0BEF8022009FB0B22924489B276
:104CC00041EA0A414EF8041B5CF8042BBEF80010C0
:104CD000120C09FB021101EB1A4167454FEA114A18
:104CE000E6D8019AA95004359AE7013E9CE700BF37
:104CF0003B6200084C6200082DE9F843154612F0AB
:104D0000030206460F4607D0254C013A002354F80B
:104D10002220FFF79BFE0746AD103DD0746A7CB998
:104D20001020FFF71BFE0246706228B91D4B1E487B
:104D30004FF4D77100F00EFCC0E901440460C46078
:104D4000D6F82480D8F808404CB940F2712130469A
:104D5000FFF712FF0023C8F80800044603604FF075
:104D60000009EB070AD5394622463046FFF71AFFFD
:104D7000394680463046FFF747FE47466D100BD058
:104D8000206838B9224621463046FFF70BFF2060E5
:104D9000C0F800900446E4E73846BDE8F88300BF59
:104DA00098630008C96100084C6200082DE9F047CB
:104DB0000C464968236903EB6218A36807469146CD
:104DC0004FEA621A08F10106B3420BDB3846FFF7DF
:104DD000DBFD054648B902462A4B2B4840F2D91163
:104DE00000F0B8FB01315B00EEE7002300F1140195
:104DF00000F110021846534537DB20692AEAEA7AA7
:104E000004F1140319F01F0901EB8A0103EB800080
:104E10002FD0C9F1200E8A464FF0000C1A6802FA12
:104E200009F242EA0C024AF8042B53F8042B984288
:104E300022FA0EFCF2D8031B153B23F003030433C4
:104E400004F11502904238BF042341F803C0BCF1BD
:104E5000000F01D008F10206013E38462E612146BE
:104E6000FFF7D2FD2846BDE8F08742F8040F013372
:104E7000C1E7043953F8042B41F8042F9842F9D8BC
:104E8000EAE700BF3B6200084C62000830B50269E7
:104E90000C69121B0ED100F11403143103EB8400D2
:104EA00001EB840150F8045D51F8044DA54203D094
:104EB00005D30122104630BD8342F3D3FAE74FF009
:104EC000FF32F7E72DE9F84F0C460646114620461B
:104ED0009046FFF7DBFF051E10D129463046FFF74D
:104EE00053FD30B93A4B024640F23221394800F0C6
:104EF00031FB0123C0E90435BDE8F88FA4BF434668
:104F0000A0463046D8F80410A6BF1C46002501254F
:104F1000FFF73AFD20B92E4B02464FF41071E5E73A
:104F2000D8F810702669C56004F1140908F1140559
:104F300000F1140E05EB870C09EB860608F1100250
:104F4000F246002159F8043B52F804BF1FFA83F8D7
:104F500011FA8BF11B0CA1EB0808C3EB1B4303EB0D
:104F600028431FFA88F819144E4548EA03434AF8C3
:104F7000043BE7D8331B153B23F0030304331534FC
:104F8000A64238BF04231D4473449E462E46664500
:104F90000ED30CF10302521B22F00302033DAC4579
:104FA00038BF00221A4452F8043D7BB10761A3E7E1
:104FB00056F8048B11FA88F2141404EB184492B2D8
:104FC00042EA04424EF8042B2114E0E7013FEAE7ED
:104FD0003B6200084C6200082DE9F7438946012135
:104FE00057EC106B9046FFF7CFFC044630B90246F1
:104FF000254B264840F20A3100F0ACFAC7F30A55B7
:10500000C7F3130335BB002E019328D068460096E2
:10501000FFF782FD009900B3019AC0F1200302FA64
:1050200003F30B43C24063610192019BA361002B18
:1050300014BF022201222261D5B1A5F233450544F5
:10504000C9F80050C0F13500C8F80000204603B090
:10505000BDE8F08343F48013D5E76161E5E701A87B
:10506000FFF75AFD019B6361012222612030E3E7D3
:1050700004EB8203A0F23240C9F800001869FFF780
:105080002BFDC0EB4210DFE73B6200084C620008DA
:1050900037B5A1FB02244CB91146019200F07AF811
:1050A000019A054630B9284603B030BD0C22026093
:1050B0000025F8E72146FEF741F9F4E737B5002966
:1050C00044D051F8043C0190002BA1F10404B8BF76
:1050D000E41800F09BFA1E4A0198136833B9636024
:1050E000146003B0BDE8304000F096BAA34208D97E
:1050F000256861198B4201BF19685B6849192160F5
:10510000EDE71A465B680BB1A342FAD9116855184E
:10511000A5420BD1246821445418A3421160E0D168
:105120001C685B68536021441160DAE702D90C23E4
:105130000360D6E7256861198B4204BF19685B6874
:10514000636004BF491921605460CAE703B030BDF1
:105150005002002070B50E4E0C463168054611B95C
:1051600000F0E8F930602146284600F0E3F9431CDE
:105170000AD0C41C24F00304A04207D0211A2846F8
:1051800000F0D8F9013001D14FF0FF34204670BD56
:10519000540200202DE9F041CD1C25F0030508350F
:1051A0000C2D38BF0C25002D074601DBA94205D97F
:1051B0000C233B6000263046BDE8F0812E4E00F007
:1051C00025FA33681C4634BB29463846FFF7C2FF30
:1051D000431C04464DD134682646002E40D1236836
:1051E0003146384604EB030800F0A4F980453AD173
:1051F000216803356D1A25F0030508350C2D38BFDD
:105200000C2529463846FFF7A5FF01302BD023682F
:105210002B4423600EE02268521B1ED40B2A16D9A1
:105220006119A342256018BF5960636808BF3160E7
:1052300062514B60384604F10B0600F0EDF926F0A0
:105240000706231DF21AB6D09B1BA350B3E7626872
:10525000A3420CBF32605A60ECE723466468B2E7B1
:1052600034467668B9E70C233B60384600F0D4F941
:10527000A1E72560DEE700BF500200202DE9F047DE
:105280008E689E4282460C4690461F4638D88A89D0
:1052900012F4906F32D025680969A5EB01096569A0
:1052A00005EB450505EBD57501334B446D109D426B
:1052B00038BF1D46530531D52946FFF76BFF06461B
:1052C00050B90C23CAF80030A38943F04003A381EE
:1052D0004FF0FF30BDE8F08721694A46FFF746FBF3
:1052E000A38923F4906343F08003A3812661656161
:1052F0004E44A5EB09052660A5603E46BE4200D996
:105300003E4620683246414600F066F9A3689B1B82
:10531000A3602368334423600020DBE72A4600F0C3
:1053200081F906460028E1D121695046FFF7C6FE03
:10533000C7E700002DE9F04F98468B891B069DB00A
:1053400007460D4614460ED50B6963B94021FFF799
:1053500021FF2860286120B90C233B604FF0FF300B
:10536000D1E040236B610023099320238DF829307D
:10537000CDF80C803023DFF8A8818DF82A304FF06B
:10538000010923469A4613F8012B0AB1252AF9D1BF
:10539000BAEB040B0BD05B46224629463846FFF792
:1053A0006DFF013000F0AA80099A5A4409929AF8D8
:1053B0000030002B00F0A28000234FF0FF32CDE937
:1053C00005230AF1010A049307938DF853301A93C9
:1053D0005446052214F8011B5148FAF709FF049AB4
:1053E000D8B9D00644BF20238DF85330110744BFED
:1053F0002B238DF853309AF800302A2B15D0079ABA
:10540000544600204FF00A0C214611F8013B303B76
:10541000092B4ED9B0B1079214E0A0EB080309FAAA
:1054200003F313430493A246D2E7039B191D1B68A1
:105430000391002BBBBF5B4242F00202079307932C
:10544000B8BF049223782E2B0CD163782A2B35D148
:10545000039B1A1D1B680392002BB8BF4FF0FF334C
:1054600002340593DFF8C8A0217803225046FAF7EA
:10547000BFFE40B14023A0EB0A0003FA00F0049BFA
:1054800003430134049314F8011B26488DF82810B7
:105490000622FAF7ADFE002838D0234B1BBB039B36
:1054A000073323F0070308330393099B334409931D
:1054B00067E70CFB02320C460120A5E7002301340C
:1054C000059319464FF00A0C204610F8012B303A8C
:1054D000092A03D9002BC5D00591C3E70CFB012194
:1054E00004460123F0E703AB00932A460F4B04A9BF
:1054F0003846FDF7CBFF421C0646D6D1AB895B068A
:105500003FF52CAF09981DB0BDE8F08F03AB0093B9
:105510002A46064B04A93846FEF75CFAEBE700BFC3
:10552000A4630008AE6300088D3400087D520008B3
:10553000AA63000838B5064D0023044608462B60D0
:10554000FCF768FA431C02D12B6803B1236038BD15
:10555000580200201FB514461A46094B1B68054621
:10556000D8684CB1074B0091CDE9013406492B4670
:1055700000F00EF800F0ACFA044B1C46F3E700BF55
:105580000C000020B5630008C2630008F063000847
:105590000EB403B5014603AB054853F8042B00686D
:1055A000019300F097F802B05DF804EB03B0704788
:1055B0000C00002082B001B901A942B14BB11378AF
:1055C0000B601278101E18BF012002B07047104601
:1055D000FBE76FF00100F8E7884210B501EB020429
:1055E00002D98442234607D8431EA14208D011F8AD
:1055F000012B03F8012FF8E7024401468A4200D14B
:1056000010BD13F8014D02F8014DF7E7014800F015
:105610001FBC00BF5C020020014800F01ABC00BFA4
:105620005C0200202DE9F041804614460E4621B967
:10563000BDE8F0411146FFF7ADBD2AB9FFF73EFDC9
:1056400025462846BDE8F08100F06AFC8442074602
:1056500002D8B4EB500F12D821464046FFF79AFD0E
:1056600005460028EDD0BC422246314628BF3A46C6
:10567000FFF77CF931464046FFF720FDE1E735466C
:10568000DFE79368013B002B10B4936008DA94695C
:10569000A34201DB0A2903D15DF8044B00F04AB9AB
:1056A0001368581C1060197008465DF8044B704769
:1056B000F8B506460F461446D518AC4201D1002075
:1056C00007E014F8011B3A463046FFF7DAFF431CA7
:1056D000F3D1F8BD2DE9F04F0D469DB01446984624
:1056E000064618B183690BB900F014FB894B9D4243
:1056F0001BD175686B6ED90705D4AB899A0502D4A6
:10570000A86D00F0A5FBAB891B0701D52B69EBB990
:105710002946304600F06EF9C0B16B6EDC070ED53D
:105720004FF0FF301DB0BDE8F08F7B4B9D4201D1A3
:10573000B568DFE7794B9D4208BFF568DAE7AB89CA
:105740009805EDD4A86D00F084FBE9E700230993E8
:1057500020238DF82930CDF80C803023DFF8C0816C
:105760008DF82A304FF0010923469A4613F8012B91
:105770000AB1252AF9D1BAEB040B0BD05B462246BD
:1057800029463046FFF794FF013000F0AA80099ABD
:105790005A4409929AF80030002B00F0A2800023AE
:1057A0004FF0FF32CDE905230AF1010A0493079374
:1057B0008DF853301A935446052214F8011B5848AB
:1057C000FAF716FD049AD8B9D10644BF20238DF804
:1057D0005330130744BF2B238DF853309AF8003011
:1057E0002A2B15D0079A544600204FF00A0C214668
:1057F00011F8013B303B092B4ED9B0B1079214E0B0
:10580000A0EB080309FA03F313430493A246D2E77B
:10581000039B191D1B680391002BBBBF5B4242F029
:10582000020207930793B8BF049223782E2B0CD162
:1058300063782A2B35D1039B1A1D1B680392002B1A
:10584000B8BF4FF0FF3302340593DFF8E4A02178AE
:1058500003225046FAF7CCFC40B14023A0EB0A00EB
:1058600003FA00F0049B03430134049314F8011B72
:105870002C488DF828100622FAF7BAFC00283FD0F1
:10588000294B1BBB039B073323F007030833039308
:10589000099B3B44099367E70CFB02320C4601204D
:1058A000A5E700230134059319464FF00A0C204662
:1058B00010F8012B303A092A03D9002BC5D00591E5
:1058C000C3E70CFB012104460123F0E703AB00937F
:1058D0002A46164B04A93046FDF7D8FD0746781C2A
:1058E000D6D16B6ED90705D4AB899A0502D4A86DC1
:1058F00000F0AFFAAB895B063FF512AF099811E7EC
:1059000003AB00932A46094B04A93046FEF762F820
:10591000E4E700BF1C6500083C650008FC64000863
:10592000A4630008AE6300088D340008B156000877
:10593000AA630008F8B50E461446054618B18369F7
:105940000BB900F0E7F9214B9C422BD16C68A3699D
:10595000A360A3891A072FD523696BB32369206835
:10596000C01A6369F6B28342374604DC21462846F2
:1059700000F03CF930BBA368013BA36023685A1CCC
:1059800022601E7063690130834204D0A389DB0763
:1059900006D50A2E04D12146284600F027F988B9F9
:1059A0003846F8BD0A4B9C4201D1AC68CFE7094BA1
:1059B0009C4208BFEC68CAE72146284600F01AF866
:1059C0000028CBD04FF0FF37EAE700BF1C65000886
:1059D0003C650008FC64000849B1FF2A85BF8A23A2
:1059E00003600A704FF0FF3098BF012070470846EF
:1059F00070470000324B70B51D6806460C4625B155
:105A0000AB6913B9284600F085F92E4B9C420FD1A3
:105A10006C68A389B4F90C2019072CD4DD0611D4C5
:105A20000923336042F04003A3814FF0FF303EE092
:105A3000254B9C4201D1AC68EBE7244B9C4208BF4C
:105A4000EC68E6E7580712D5616B41B104F14403F5
:105A5000994202D03046FFF731FB00236363A389EC
:105A600023F02403A3810023636023692360A389B7
:105A700043F00803A38123694BB9A38903F420737E
:105A8000B3F5007F03D02146304600F009FAA08923
:105A9000B4F90C2010F001030AD00023A36063695D
:105AA0005B42A361236943B910F08000BAD170BD95
:105AB000810758BF6369A360F4E70020F7E700BFE0
:105AC0000C0000201C6500083C650008FC64000810
:105AD00008B5062000F054FA0120FBF723FF000070
